:0410000053EF08F0B2
:0E1008004582FACF03F0FBCF04F06CEF14F03A
:101018004580D8CF12F0E8CF13F0E0CF14F0FACF24
:1010280015F0FBCF16F0E9CF17F0EACF18F0E1CFB3
:1010380019F0E2CF1AF0D9CF1BF0DACF1CF0F3CFBA
:101048001DF0F4CF1EF0F6CF1FF0F7CF20F0F8CF49
:1010580021F0F5CF22F022C0F5FF21C0F8FF20C013
:10106800F7FF1FC0F6FF1EC0F4FF1DC0F3FF1CC032
:10107800DAFF1BC0D9FF1AC0E2FF19C0E1FF18C090
:10108800EAFF17C0E9FF16C0FBFF15C0FAFF14C03E
:10109800E0FF13C0E8FF12C0D8FF459010001EEF14
:0210A80018F03E
:1011000000D0116E11981109110902650002010049
:10111000C03209040000000101000009240100019F
:101120000900010109040100020103000007240174
:10113000000141000624020101000624020202000F
:10114000092403010301020100092403020401012F
:101150000100090501024000000000052501010110
:1011600009058102400000000005250101032A0352
:101170005700690064006700650074006500650041
:10118000720069006E006700200053007400750053
:10119000640069006F007300260351002D005700A2
:1011A000690064006700650074002000320055008B
:1011B0005300420020004D00490044004900120144
:1011C000000200000008D80464F9020001020001D6
:0511D000040309040006
:1011D6001F0E00018265120064B2120000017251F6
:1011E60000017311D8B407D072C0D9FF73C0DAFFFB
:1011F6000001DFBE13D0000E0001886F400E000113
:10120600896F020E00018A6F400E00018B6F010E7E
:1012160069EC12F088C072F089C073F0060E51ECCA
:1012260016F000018F6F0001D8908F350001906F86
:10123600050E51EC16F0000190113E6E240E351885
:10124600D8A444D03F50D8A412004004D8A4120019
:101256002F503010D8B406D02FC0D9FF30C0DAFFD7
:10126600DFBE1200640E3F6E000E0201C06F000E5C
:10127600C16F000EC26F000EC36F0201C099C09B02
:10128600C09DC09F0201C051F00B0909C06F900EAE
:101296000201C16F070E0201C26F7F0E0201C36F0A
:1012A600010E0001886FC00E0001896F020E000159
:1012B6008A6F040E00018B6F010E69EC12F088C074
:1012C6002FF089C030F0000E406E1200210E351846
:1012D600D8A444D03F50D8A412004004D8A4120089
:1012E6002F503010D8B406D02FC0D9FF30C0DAFF47
:1012F600DFBE1200640E3F6E000E0201C06F000ECC
:10130600C16F000EC26F000EC36F0201C099C09B71
:10131600C09DC09F0201C051F00B0909C06F900E1D
:101326000201C16F080E0201C26F7F0E0201C36F78
:10133600010E0001886FC00E0001896F020E0001C8
:101346008A6F040E00018B6F010E69EC12F088C0E3
:101356002FF089C030F0000E406E1200200E3518B6
:10136600D8A444D03F50D8A412004004D8A41200F8
:101376002F503010D8B406D02FC0D9FF30C0DAFFB6
:10138600DFBE1200640E3F6E000E0201C06F000E3B
:10139600C16F000EC26F000EC36F0201C099C09BE1
:1013A600C09DC09F0201C051F00B0909C06F900E8D
:1013B6000201C16F090E0201C26F7F0E0201C36FE7
:1013C600010E0001886FC00E0001896F020E000138
:1013D6008A6F040E00018B6F010E69EC12F088C053
:1013E6002FF089C030F0000E406E1200220E351824
:1013F600D8A444D03F50D8A412004004D8A4120068
:101406002F503010D8B406D02FC0D9FF30C0DAFF25
:10141600DFBE1200640E3F6E000E0201C06F000EAA
:10142600C16F000EC26F000EC36F0201C099C09B50
:10143600C09DC09F0201C051F00B0909C06F900EFC
:101446000201C16F0A0E0201C26F7F0E0201C36F55
:10145600010E0001886FC00E0001896F020E0001A7
:101466008A6F040E00018B6F010E69EC12F088C0C2
:101476002FF089C030F0000E406E1200230E351892
:10148600D8A44AD03F50D8A412004004D8A41200D1
:101496002F503010D8B406D02FC0D9FF30C0DAFF95
:1014A600DFBE1200040EDDEC17F0050EDDEC17F0C2
:1014B600640E3F6E000E0201C06F000EC16F000E7B
:1014C600C26F000EC36F0201C099C09BC09DC09F32
:1014D6000201C051F00B0909C06F900E0201C16FE5
:1014E600010E0201C26F7F0E0201C36F010E0001E1
:1014F600886FC00E0001896F020E00018A6F040E0C
:1015060000018B6F010E69EC12F088C02FF089C0C4
:1015160030F0000E406E1200260E3518D8A44AD0C0
:101526003F50D8A412004004D8A412002F50301007
:10153600D8B406D02FC0D9FF30C0DAFFDFBE120004
:10154600040EDDEC17F0050EDDEC17F0640E3F6EB1
:10155600000E0201C06F000EC16F000EC26F000EBA
:10156600C36F0201C099C09BC09DC09F0201C051BC
:10157600F00B0909C06F900E0201C16F020E020145
:10158600C26F7F0E0201C36F010E0001886FC00E8D
:101596000001896F020E00018A6F040E00018B6F35
:1015A600010E69EC12F088C02FF089C030F0000EF1
:1015B600406E1200250E3518D8A44AD03F50D8A444
:1015C60012004004D8A412002F503010D8B406D010
:1015D6002FC0D9FF30C0DAFFDFBE1200040EDDECEB
:1015E60017F0050EDDEC17F0640E3F6E000E0201DB
:1015F600C06F000EC16F000EC26F000EC36F0201F6
:10160600C099C09BC09DC09F0201C051F00B090943
:10161600C06F900E0201C16F030E0201C26F7F0EF2
:101626000201C36F010E0001886FC00E0001896FB1
:10163600020E00018A6F040E00018B6F010E69EC29
:1016460012F088C02FF089C030F0000E406E1200F4
:10165600070E3518D8A444D03F50D8A41200400431
:10166600D8A412002F503010D8B406D02FC0D9FFFE
:1016760030C0DAFFDFBE1200640E3F6E000E0201BC
:10168600C06F000EC16F000EC26F000EC36F020165
:10169600C099C09BC09DC09F0201C051F00B0909B3
:1016A600C06F900E0201C16F040E0201C26F7F0E61
:1016B6000201C36F010E0001886FC00E0001896F21
:1016C600020E00018A6F040E00018B6F010E69EC99
:1016D60012F088C02FF089C030F0000E406E120064
:1016E6003D503E18D8B4C2D03D28D8B4A4D03D5001
:1016F600D8A44FD03E04D8A44CD0000E0001756F7C
:10170600010E746F0001764B772B3F50D8A493D00F
:101716004004D8A490D02F503010D8B406D02FC093
:10172600D9FF30C0DAFFDFBE86D0040EDDEC17F03D
:101736000A0E3F6E000E0201C06F000EC16F000E52
:10174600C26F000EC36F0201C099C09BC09DC09FAF
:101756000201C051F00B0909C06F900E0201C16F62
:10176600050E0201C26F7F0E0201C36F010E00015A
:10177600886FC00E0001896F020E00018A6F040E89
:1017860000018B6F010E69EC12F050D0000E406E16
:1017960052D03D04D8A44FD03E50D8A44CD000011E
:1017A6007469756900017607D8A077073F50D8A4F9
:1017B60042D04004D8A43FD02F503010D8B406D021
:1017C6002FC0D9FF30C0DAFFDFBE35D0050EDDEC05
:1017D60017F00A0E3F6E000E0201C06F000EC16FB9
:1017E600000EC26F000EC36F0201C099C09BC09D60
:1017F600C09F0201C051F00B0909C06F900E020193
:10180600C16F060E0201C26F7F0E0201C36F010E89
:101816000001886FC00E0001896F020E00018A6FF9
:10182600040E00018B6F010E69EC12F088C02FF0D8
:1018360089C030F0ABD73EC03DF0000177BF0DD078
:101846000001775105E1180E0001765DD8A005D09C
:10185600000E0001776F000E766F000177AF120061
:10186600000E0001776F170E766F12003F50D8A456
:1018760012004050D8A412002F503010D8B406D011
:101886002FC0D9FF30C0DAFFDFBE12000A0E3F6E4E
:101896000201C099C09BC09DC09F0201C051F00BC0
:1018A6000909C06F900E0201C16F000E0201C36FDD
:1018B600010E0001886FC00E0001896F020E000143
:1018C6008A6F040E00018B6F010E69EC12F088C05E
:1018D6002FF089C030F0010E406E12000201220581
:1018E600D8A410D0020120511F0B0009D8A40AD099
:1018F600268E030E02012119D8A402D0010E01D0B2
:10190600000E366E02012251D8A4120002012051A7
:101916001F0B020AD8A41200020124510F0B000962
:10192600D8B41200020124510F0B00019C6F020E65
:1019360000019C611200200E00018219D8A4120039
:10194600268E020124BF1FD0020124510F0B000175
:101956009C6F00019C51020D6C0EF324D96E000E93
:10196600F420DA6EDECFA0F0DDCFA1F00201245123
:101976000F0B00019C6F00019C51010D7A0EF324A0
:10198600D96E000E1ED0020124510F0B00019C6F70
:1019960000019C51020D290EF324D96E000EF4208D
:1019A600DA6EDECFA0F0DDCFA1F0020124510F0BDD
:1019B60000019C6F00019C51010D780EF324D96E35
:1019C600000EF420DA6EDF5000019F6F00019FB118
:1019D60003D00001A09502D00001A085020124BF1A
:1019E6000DD0020124510F0B00019C6F00019C5188
:1019F600020D6C0EF324D96E000E0CD00201245198
:101A06000F0B00019C6F00019C51020D290EF3245F
:101A1600D96E000EF420DA6EA0C0DEFFA1C0DDFF95
:101A2600030E02012119D8A434D0A0C0D9FFA1C049
:101A3600DAFF0001DFAE20D0020124BF0DD0020183
:101A460024510F0B00019C6F00019C51010D7A0E71
:101A5600F324D96E000E0CD0020124510F0B0001A5
:101A66009C6F00019C51010D780EF324D96E000E77
:101A7600F420DA6E0001DF82A0C0D9FFA1C0DAFF30
:101A8600000EDB84A0C0D9FFA1C0DAFF000EDB8EFA
:101A96001200040E0001A01BA0C0D9FFA1C0DAFFEE
:101AA6000001DFAE1DD0A0C0D9FFA1C0DAFF7F0EB6
:101AB600DF16A0C0D9FFA1C0DAFF000EDB8C000E36
:101AC6000001956F050E946FA0C096F0A1C097F027
:101AD600000E0001996F020E986F93EC16F006D077
:101AE600A0C0D9FFA1C0DAFF000EDB8C040E0001F6
:101AF600A01B00019FB307D0A0C0D9FFA1C0DAFF89
:101B06000001DFAE37D0020124BF0DD002012451FF
:101B16000F0B00019C6F00019C51010D7A0EF324FE
:101B2600D96E000E0CD0020124510F0B00019C6FE0
:101B360000019C51010D780EF324D96E000EF4209D
:101B4600DA6E0001DF92A0C0D9FFA1C0DAFF3B0E1A
:101B5600DF16000E0001956F050E946FA0C096F07B
:101B6600A1C097F0000E0001996F020E986F93ECDA
:101B760016F006D0A0C0D9FFA1C0DAFF3B0EDF16D3
:101B8600020124510F0B00019C6F00019C51010DB5
:101B9600530EF32400019D6F0F0EF42000019E6F7B
:101BA6009DC0D9FF9EC0DAFFFE0EDF1612000001AF
:101BB6008251D8A412D0000E646E000E606E160E0E
:101BC600616E9F0E0F015B6F7B0E606E01D06486A7
:101BD60064A6FDD7010E0001826F00018205D8B40C
:101BE60064BA09D0000E626E000E606E6080608876
:101BF600020E0001826F62B460A403D06294FFEC0F
:101C060017F064A202D0A194120062B060A006D0C0
:101C1600A7EC0EF0040E0001826F629062B860A815
:101C260002D03AEC18F062AC22D060AC12D0000EB2
:101C36000001956F730E946F000E0001966F000EF3
:101C46000001976F000E0001996F010E986F93ECDB
:101C560016F0629C88EC18F000018351D8B402D0CB
:101C66000001830700018351D8B409EC14F062BA6D
:101C760060AA02D076EC17F062B260A214D07F0E92
:101C86000001956F9469000E0001966F000E000129
:101C9600976F000E0001996F010E986F93EC16F086
:101CA600000E0F015F6F040E0001826102D0A19445
:101CB600120060A647D0000E0001A36F030E0001BC
:101CC600A36501D03FD062A63DD063CF87F0000167
:101CD6008731E832E8320F0B0001856F629600010A
:101CE60087B508D000018551010D7A0EF324D96E0F
:101CF600000E07D000018551010D780EF324D96E30
:101D0600000EF420DA6E0001DF700001855100013B
:101D1600D8A403D025EC15F012D0000E0001956F63
:101D2600720E946F870E0001966F000E0001976F7A
:101D3600000E0001996F000E986F93EC16F00001EB
:101D4600A32BBCD7A1941200A094000E0F015F6FC5
:101D5600000E626E000E0F01536F540E0001886F65
:101D66000F0E0001896F000E00018B6F000E8A6F47
:101D7600000E00018D6F010E8C6F56EC18F0160EDA
:101D8600616E9F0E0F015B6F7B0E606E000E000191
:101D9600906F070E0001906501D010D000019051A0
:101DA600040D000EF324D96E020EF420DA6EDE6AFC
:101DB600DE6ADE6ADD6A0001902BEBD7648C000ECA
:101DC6000F015C6F6498649C6296000E266E000E8E
:101DD6000001636F000E0001656F000E646F62B64E
:101DE600F3D7010E3A6E010E3B6E000E376E000EF3
:101DF600386E000E0001816F000E0001906F010E1B
:101E06000001906501D033D000019051020D290EDA
:101E1600F324D96E000EF420DA6E000EDE6E000E8C
:101E2600DD6E00019051020D6C0EF324D96E000E8A
:101E3600F420DA6E000EDE6E000EDD6E00019051AB
:101E4600010D780EF324D96E000EF420DA6E000E22
:101E5600DF6E00019051010D7A0EF324D96E000E4B
:101E6600F420DA6E000EDF6E0001902BC8D7080E44
:101E7600296E020E2A6E160E0F01536F020E020114
:101E8600036F200E026F080E0201016F040E02019D
:101E9600006F0201008F000E426E000E0001686F97
:101EA600000E696F000E6A6F000E6B6F000E000168
:101EB600846F000E0001826F1200800E020120194D
:101EC600D8A41200C00E266E82D0BE0E236E110E4E
:101ED600246E000E286E120E276E12000201225189
:101EE600D8A442D002012251020D070EF324F66E49
:101EF600110EF420F76E0900F5CF23F00A00F5CF96
:101F060024F0020E23240001886F000E2420000115
:101F1600896F88C0F6FF89C0F7FFF86A020EF7647A
:101F260003D00800F55005D0F6CFE9FFF7CFEAFF5A
:101F3600EF50276E030E23240001886F000E242025
:101F46000001896F88C0F6FF89C0F7FFF86A020EA4
:101F5600F76403D00800F55005D0F6CFE9FFF7CFB8
:101F6600EAFFEF50286E1200000E266E1200030ED6
:101F76000201226126D002012251020D010EF32434
:101F8600F66E110EF420F76E0900F5CF23F00A0065
:101F9600F5CF24F023C0F6FF24C0F7FFF86A020E3F
:101FA600F76403D00800F55005D0F6CFE9FFF7CF68
:101FB600EAFFEF500001886F00018851276E286AFA
:101FC6001200000E266E1200000E266E120002018E
:101FD6002351010AD8B479D7030AD8B47FD7010AA6
:101FE600D8B4C5D7F1D720EE01F03150D9263250FA
:101FF600DA22DF500001896F000189510001645D1A
:10200600000E6559D8A064C089F00001895100010D
:10201600645F000E655B000E0001886F14D000013E
:102026008851010D280EF324D96E020EF420DA6EC3
:1020360060C0E1FF61C0E2FFDFCFE7FF0001604B58
:10204600612B0001882B000189510001885DD8A011
:10205600E6D70001645100016511D8B432D020EEF4
:1020660001F03350D9263450DA22080EDF6E20EE06
:1020760002F03350D9263450DA22280EDE6E020ED4
:10208600DD6E31C0D9FF32C0DAFFDFBC0DD033C000
:10209600D9FF34C0DAFF480EDF6E33C0D9FF34C033
:1020A600DAFF000EDB8E120033C0D9FF34C0DAFF30
:1020B600080EDF6E33C0D9FF34C0DAFF000EDB8EA8
:1020C600120020EE01F03350D9263450DA22080EE1
:1020D600DF6E20EE02F03350D9263450DA22200E7D
:1020E600DE6E020EDD6E33C0D9FF34C0DAFF040E99
:1020F600DF6E33C0D9FF34C0DAFF000EDB8E00017D
:10210600639F3950D8A4120009EC14F01200268EF1
:10211600540E0001886F0F0E0001896F000E00013A
:102126008B6F000E8A6F000E00018D6F010E8C6F93
:1021360056EC18F0000E0001886F020E0001896F40
:10214600000E00018B6F000E8A6F000E00018D6F6E
:10215600200E8C6F56EC18F0648C000E00019C6FFC
:10216600010E00019C6501D019D000019C51010DA2
:10217600780EF324D96E000EF420DA6E000EDF6EB0
:1021860000019C51010D7A0EF324D96E000EF42045
:10219600DA6E000EDF6E00019C2BE2D7430E0001C3
:1021A600886F000E0001896F000E00018B6F000E14
:1021B6008A6F000E00018D6F010E8C6F56EC18F0C1
:1021C600649C080E296E020E2A6E000E316E020EF7
:1021D600326E31C033F032C034F022C242F0425087
:1021E600D8A404D0100E0001826F1200000E000168
:1021F600956F010E946F420E0001966F000E00015E
:10220600976F000E0001996F010E986F93EC16F010
:10221600200E0001826F1200649826BE39D000019C
:1022260063AF0BD0020E3C6E3850D8B476EC15F086
:10223600000E3B6E000E3A6E120020EE01F0335097
:10224600D9263450DA22080EDF6E20EE02F0335023
:10225600D9263450DA22200EDE6E020EDD6E33C031
:10226600D9FF34C0DAFF0C0EDF6E33C0D9FF34C09D
:10227600DAFF000EDB8E29C0D9FF2AC0DAFF040E72
:10228600DF6E29C0D9FF2AC0DAFF000EDB8E1200EE
:10229600020120AF10D0010E3C6E3750D8B476EC58
:1022A60015F0000E3B6E000E3A6E3950D8A412009F
:1022B60009EC14F01200020E3C6E20EE01F03350D1
:1022C600D9263450DA22080EDF6E20EE02F03350A3
:1022D600D9263450DA22200EDE6E020EDD6E33C0B1
:1022E600D9FF34C0DAFF040EDF6E33C0D9FF34C025
:1022F600DAFF000EDB8E000E3B6E000E3A6E395092
:10230600D8A4120009EC14F0120002012039E832B8
:10231600030B0009D8A4120048D0268E080E00012F
:10232600826F120060EC0FF012008AEC10F01200BF
:10233600420E236E000E246E2680010E276E268E18
:102346001200CAEC14F0120071EC0CF0120002013B
:102356002451010D430EF324236E000EF420246E47
:102366002680010E276E268E1200268E020124512B
:10237600010D430EF324D96E000EF420DA6E22C24C
:10238600DFFF1200000E0001956F020E946F000E23
:102396000001966F000E0001976F000E0001996F05
:1023A600000E986F93EC16F0120002012151000AFC
:1023B600D8B4C7D7010AD8B4C7D7020AD8B4C4D785
:1023C600060AD8B4AAD7030AD8B4ACD7010AD8B437
:1023D600D9D70F0AD8B4ACD7010AD8B4A6D7030AFE
:1023E600D8B4B5D7010AD8B4C0D7070A1200080E68
:1023F6000001886F285010E1080E275CD8B00CD079
:1024060027C088F04150D8A402D0010E04D0410460
:10241600D8A402D0020E416E00018851275E000E3C
:10242600285A20EE01F02950D9262A50DA2288C0EF
:10243600DFFF280E00017C6F020E00017D6F26A0D3
:102446001DD03ED023C0F6FF24C0F7FFF86A7CC03B
:10245600D9FF7DC0DAFF020EF76403D00800F550FD
:1024660005D0F6CFE9FFF7CFEAFFEF50DF6E234A3C
:10247600242A00017C4B7D2B00018807000188512E
:102486000001D8B41200DED723C0F6FF24C0F7FF40
:10249600F86A7CC0D9FF7DC0DAFF020EF76403D06C
:1024A6000800F55005D0F6CFE9FFF7CFEAFFEF5069
:1024B600DF6E234A242A00017C4B7D2B000188070E
:1024C600000188510001D8B41200DED700018C6FDC
:1024D600000188510001D8B408D000018C51020DCA
:1024E600290EF324D96E000E07D000018C51020D7F
:1024F6006C0EF324D96E000EF420DA6EDECF8DF06A
:10250600DDCF8EF000018D5100018E11D8A407D0C9
:10251600000E0001886F000E0001896F1200000195
:1025260020EE02F08D51D9268E51DA2289C0DEFFC7
:102536008AC0DDFF000120EE01F08D51D9268E51B3
:10254600DA228BC0DFFF8DC0D9FF8EC0DAFF400EC6
:10255600DF168DC0D9FF8EC0DAFF000EDB868DC078
:10256600D9FF8EC0DAFF000EDB8E00018851000114
:10257600D8B408D000018C51020D290EF324D96E6F
:10258600000E07D000018C51020D6C0EF324D96E9B
:10259600000EF420DA6E040EDF1A8DC088F08EC0AD
:1025A60089F0120064A25ED0020EDDEC17F0030E75
:1025B600DDEC17F0010EDDEC17F0040E99EC17F0C8
:1025C600050E99EC17F01200020E99EC17F0030EA7
:1025D60099EC17F0010E99EC17F0320E2D182E100B
:1025E600D8A407D0040E99EC17F0050E99EC17F055
:1025F6003FD02E5004E1970E2D5CD8A039D0000EA6
:102606002E6E000E2D6E34D02D042E10D8A410D0B0
:10261600020E99EC17F0030E99EC17F0010E99ECE7
:1026260017F0040EDDEC17F0050EDDEC17F020D0E8
:10263600320E2D182E10D8A410D0020EDDEC17F095
:10264600030EDDEC17F0010EDDEC17F0040E99EC2D
:1026560017F0050E99EC17F00BD0B70E2D5C030E94
:102666002E58CBD700018251200AD8B4ADD7CCD78B
:102676002D4A2E2A120000018D6F000E00018E6F6A
:10268600020E00018F6F000188510001896F8A6B6D
:10269600D890000189378A3700018D5100018B6F70
:1026A6008C6B0001D8908B378C370001D8908B3714
:1026B6008C370001895100018B2700018A510001E6
:1026C6008C230001D8908B378C370001D8908B373C
:1026D6008C3700018B5100018E2700018C510001BF
:1026E6008F238EC0D9FF8FC0DAFF0001DF9E000165
:1026F60088510001D8A408D000018D51020D6C0E3E
:10270600F324D96E000E07D000018D51020D290E5B
:10271600F324D96E000EF420DA6E8EC0DEFF8FC071
:10272600DDFF8EC0D9FF8FC0DAFF0001DF9C0001FC
:1027360020EE04F08E51D9268F51DA220001DF8C6B
:10274600120029C0D9FF2AC0DAFF000EDFBC010E35
:102756000001896F040E291A080E00018219D8A4F7
:102766000ED0020122517F0B0F015C6F0F015C51ED
:10277600D8B402D0100E01D0040E0001826F3C04C2
:10278600D8A43CD020EE02F02950D9262A50DA22CD
:10279600280EDE6E020EDD6EFAEC11F0020E411806
:1027A600D8A40DD029C0D9FF2AC0DAFF040EDF6EE7
:1027B60029C0D9FF2AC0DAFF000EDB8E1200000105
:1027C60089510001D8A40DD029C0D9FF2AC0DAFF4B
:1027D600480EDF6E29C0D9FF2AC0DAFF000EDB8E55
:1027E600120029C0D9FF2AC0DAFF080EDF6E29C001
:1027F600D9FF2AC0DAFF000EDB8E1200000163AF9C
:1028060002D00001639F000E3C6E12003A50D8A41D
:102816001200010E3A6E3B50D8A41200010E3B6E18
:10282600020E3C18D8A415D020EE01F02950D92666
:102836002A50DA22000EDF6E29C0D9FF2AC0DAFF3D
:10284600480EDF6E29C0D9FF2AC0DAFF000EDB8EE4
:1028560012003C04D8A41200000E0001806F20EE86
:1028660001F03150D9263250DA22080EDF6E20EE02
:1028760002F03150D9263250DA22200EDE6E020ED8
:10288600DD6E31C0D9FF32C0DAFF040EDF6E31C013
:10289600D9FF32C0DAFF000EDB8E010E0001806F19
:1028A60020EE01F03350D9263450DA22080EDF6EBE
:1028B60020EE02F03350D9263450DA22200EDE6E96
:1028C600020EDD6E33C0D9FF34C0DAFF800EDF6E34
:1028D6001200E9CF05F0EACF06F0E1CF07F0E2CF2C
:1028E60008F0D9CF09F0DACF0AF0F3CF0BF0F4CF26
:1028F6000CF0F6CF0DF0F7CF0EF0F8CF0FF0F5CFC6
:1029060010F09EA226D000017E4B7F2B9E920001E6
:102916007051016E00017151026E0001704B712BF6
:1029260002BE17D0025004E1190E015CD8A011D0E6
:10293600000E0001716F010E706F8250270B116E31
:1029460011504418D8B403D011C044F002D011C0BD
:1029560035F010C0F5FF0FC0F8FF0EC0F7FF0DC031
:10296600F6FF0CC0F4FF0BC0F3FF0AC0DAFF09C084
:10297600D9FF08C0E2FF07C0E1FF06C0EAFF05C0B5
:10298600E9FF04C0FBFF03C0FAFF45921100000EE9
:102996000201286F000E0201296F3ED0268E3604F2
:1029A600D8A446D00201288343D0268E41D0268E55
:1029B600020124BF0DD0020124510F0B0001886FC4
:1029C60000018851020D6C0EF324D96E000E0CD056
:1029D600020124510F0B0001886F00018851020D7E
:1029E600290EF324D96E000EF420DA6EDECF89F0BC
:1029F600DDCF8AF089C0D9FF8AC0DAFF0001DFAED9
:102A060017D089C0D9FF8AC0DAFF0001DFA410D031
:102A1600010E0201286F0CD0020120511F0B000A83
:102A2600D8B4BCD7010AD8B4C0D7030AD8B4BFD724
:102A360026AE1200280E236E020E246E2680020E8B
:102A4600276E12002D0E0001836F87C0A2F0FD0EC7
:102A56000001A217D8A43ED087C0A2F00001D890EA
:102A6600A2333F0E0001A2170001A251040D000E71
:102A7600F324316E020EF420326E31C033F032C0D0
:102A860034F0040E331A31C0D9FF32C0DAFFDF301A
:102A9600E8320F0B0D0AD8A41AD0200E0001886F59
:102AA600020E0001896F20EE02F03150D926325015
:102AB600DA22DECF8AF0DDCF8BF0000E00018D6FBB
:102AC600080E8C6F51EC17F0C2EC15F01200CEEC2C
:102AD60016F0120000018751FD0B040AD8A412005B
:102AE600A4EC13F01200000E376E000E386E020EC4
:102AF6003C18D8A41FD020EE01F03350D92634500C
:102B0600DA22080EDF6E20EE02F03350D92634505A
:102B1600DA22280EDE6E020EDD6E33C0D9FF34C017
:102B2600DAFF480EDF6E33C0D9FF34C0DAFF000E7D
:102B3600DB8E120027500201265D2850020127591C
:102B4600D8B004D026C227F027C228F0FAEC11F03C
:102B560020EE02F02950D9262A50DA22280EDE6EFF
:102B6600020EDD6E29C0D9FF2AC0DAFF480EDF6EDD
:102B760029C0D9FF2AC0DAFF000EDB8E1200000E34
:102B8600416E000E396E000E376E000E386E000E66
:102B96000001806F000E3C6E29C0D9FF2AC0DAFF03
:102BA6007F0EDF16040E291A29C0D9FF2AC0DAFFC4
:102BB6007F0EDF16040E291A33C0D9FF34C0DAFFA0
:102BC6007F0EDF16000E266E000E286E000E276E94
:102BD600000E0001636F000E0001656F000E646F4A
:102BE60088EC11F0000E0001956F030E946F000E35
:102BF6000001966F000E0001976F000E0001996F9D
:102C0600000E986F93EC16F00FEC11F01200000115
:102C1600896F3AD0020EBBEC17F0010EBBEC17F031
:102C2600030EBBEC17F0040EBBEC17F0050EBBEC65
:102C360017F0020E70EC18F00F0EC16E0F0EC06E7C
:102C4600000E7E6E000E7F6ED08E9F803F0E946EBD
:102C5600CA86CA84CA92CA80FA0ECB6E000EF26E7B
:102C6600F29A9E929D82F294F28EF28C000E0001F0
:102C7600776F000E766F000E3E6E3D68000E000107
:102C8600756F000E746F120000018951000AD8B4E6
:102C9600C1D7010AD8B41200030A12000001886FD6
:102CA60026D082B002D0010E1200000E120082B4AD
:102CB60002D0010E1200000E120082B202D0010EE6
:102CC6001200000E120082BA02D0010E1200000E8F
:102CD600120082B602D0010E1200000E120082B857
:102CE60002D0010E1200000E1200000E12000001AA
:102CF6008851000AD8B4F9D7010AD8B4D2D7030A42
:102D0600D8B4D5D7010AD8B4D8D7070AD8B4DBD7F0
:102D1600010AD8B4DED7030AD8B4E1D7000E1200F0
:102D26000ED0D5EC12F0ADEC18F01200D5EC12F086
:102D36001200D5EC12F01200FEEC16F0120094C050
:102D46009AF095C09BF000019B51000AD8B404D0BC
:102D56007F0AD8A412001BD000019A51010AD8B4E8
:102D6600EBD7030AD8B41200010AD8B41200060A37
:102D7600D8B41200770AD8B41200010AD8B4D1D751
:102D8600070AD8B4D6D7010AD8A41200CFD70001B3
:102D96009A51FF0A1200020E3C18D8A403D0F6EC92
:102DA6000FF01200000E3C6E00018051D8A41FD017
:102DB60020EE01F03350D9263450DA22080EDF6EA9
:102DC60020EE02F03350D9263450DA22200EDE6E81
:102DD600020EDD6E33C0D9FF34C0DAFF0C0EDF6E93
:102DE60033C0D9FF34C0DAFF000EDB8E1200000EAE
:102DF6000001806F1200000E2F6E000E306E000E66
:102E06000001726F000E0001736F3C0E0001866FA9
:102E1600010E406E000E3F6E1E0E0001906F010EF9
:102E260029EC17F0000E0001886F400E0001896F33
:102E3600020E00018A6F400E00018B6F010E69ECD5
:102E460012F088C072F089C073F012000001936F0F
:102E5600000190A507D0000E0001886F0001935174
:102E66003EEC13F0000190A307D0010E0001886F1D
:102E7600000193513EEC13F000019351010D530EE6
:102E8600F3240001916F0F0EF4200001926F91C0A0
:102E9600D9FF92C0DAFF90C0DFFF12008AC090F01F
:102EA6008BC091F088C08EF089C08FF010D090C092
:102EB600D9FF91C0DAFF8EC0E1FF8FC0E2FFDFCFFE
:102EC600E7FF0001904B912B00018E4B8F2B0001E9
:102ED6008C07D8A08D0700018C29E9E100018D2916
:102EE600D8B41200E4D70F0153A11ED031C0D9FFC8
:102EF60032C0DAFF800EDE18D8A414D029C0D9FF5C
:102F06002AC0DAFF840EDE18D8A40CD031C0D9FF4F
:102F160032C0DAFF0C0EDF6E31C0D9FF32C0DAFFE5
:102F2600000EDB8E0F015391629A12000001886F2A
:102F36000AD08A9812008A9C12008A9A12008B9EE6
:102F460012008B9C120000018851000AD8B41200AE
:102F5600010AD8B4EED7030AD8B4EDD7010AD8B41B
:102F6600ECD7070AD8B4EBD7010AD8A41200E9D7E0
:102F76000001886F0AD093981200939A1200939CCE
:102F86001200949E1200949C120000018851000ABF
:102F9600D8B41200010AD8B4EED7030AD8B4EFD7D2
:102FA600010AD8B4EAD7070AD8B4EBD7010AD8A4DD
:102FB6001200E9D70001886F0AD08A8812008A8C2D
:102FC60012008A8A12008B8E12008B8C120000016E
:102FD6008851000AD8B41200010AD8B4EED7030A01
:102FE600D8B4EDD7010AD8B4ECD7070AD8B4EBD7D2
:102FF600010AD8A41200E9D7000E0001816F000E65
:103006000001956F740E946F000E0001966F000E0E
:103016000001976F000E0001996F000E986F93ECF8
:1030260016F06492609401D0629462B4FDD7000EEB
:103036000001846F120000EE60F0280EEE6AE806CA
:10304600FDE100EE23F0210EEE6AE806FDE1640ED6
:10305600F66E310EF76E000EF86E0900F5CF44F0ED
:1030660045904592000EF86E00019CEF18F06084C2
:1030760062986482010E0001816F000E0001846F68
:10308600000E0001956F750E946F000E0001966F8D
:10309600000E0001976F000E0001996F000E986FE9
:1030A60093EC16F0120088C08EF089C08FF009D01C
:1030B6008EC0D9FF8FC0DAFF8AC0DFFF00018E4BBA
:1030C6008F2B00018C07D8A08D0700018C29F0E119
:1030D60000018D29D8B41200EBD70001886F0001DA
:1030E6008851000AD8B41200010AD8B41200030AA3
:1030F600D8B41200010AD8B41200070AD8B41200D4
:10310600010AD8B41200030A1200010E0001682752
:10311600000E69236A236B2300018151D8A4120093
:103126000001842B00018451D8A412000001846997
:103136001200000E0AEC16F0A7EC0EF0DAEC0DF019
:10314600200E0001826101D0F9D764B2F7D7EBEC0B
:0F31560008F0F4D73F50D8B412003F061200FF24
:020000040020DA
:08000000FFFFFFFFFFFFFFFF00
:020000040030CA
:0E0000000032011EFF0081FF03C003E0034039
:00000001FF
